:020000040800F2
:1000000020070020C1010008AF1000089D0F000864
:10001000AD100008F10200083F15000800000000C4
:10002000000000000000000000000000B310000805
:10003000F302000800000000B1100008B51000082D
:10004000DB010008DB010008DB010008DB01000820
:10005000DB010008DB010008DB010008DB01000810
:10006000DB010008DB010008DB010008DB01000800
:10007000DB010008DB010008DB010008DB010008F0
:10008000DB010008DB010008DB010008DB010008E0
:10009000DB010008DB010008DB010008DB010008D0
:1000A000DB010008DB010008DB010008DB010008C0
:1000B0005D110008DB010008DB010008DB0100081E
:1000C000DB010008DB010008DB010008DB010008A0
:1000D000DB010008DB010008DB010008DB01000890
:1000E000DB010008DB010008DB010008DB01000880
:1000F000DB010008DB010008DB010008DB01000870
:10010000DB010008DB010008DB010008DB0100085F
:10011000DB010008DB010008DB010008DB0100084F
:10012000DB010008DB010008DB010008DB0100083F
:10013000DB010008DB010008DB010008DB0100082F
:10014000DB010008DB010008DB010008DB0100081F
:10015000DB010008DB010008DB010008DB0100080F
:10016000DB010008DB010008DB010008DB010008FF
:10017000DB010008DB010008DB01000800000000D3
:10018000DB010008DB010008DB010008DB010008DF
:10019000DB010008DB010008DB010008DB010008CF
:1001A000DB010008DB010008DB010008DFF80CD0F0
:1001B00000F08CF800480047811500082007002057
:1001C0000648804706480047FEE7FEE7FEE7FEE7F1
:1001D000FEE7FEE7FEE7FEE7FEE7FEE74111000867
:1001E000AD0100082DE9F05F0546002092469B46D0
:1001F00088460646814640241BE02846414647463D
:10020000224600F053F853465A46C01A914110D383
:1002100011461846224600F03AF82D1A67EB0108FD
:100220004F4622460120002100F031F817EB00096B
:100230004E41201EA4F10104DFDC484631462A4627
:100240004346BDE8F09F40EA01039B0703D009E065
:1002500008C9121F08C0042AFAD203E011F8013BB2
:1002600000F8013B521EF9D27047D2B201E000F80B
:10027000012B491EFBD270470022F6E710B513464A
:100280000A4604461946FFF7F0FF204610BD202A13
:1002900004DB203A00FA02F1002070479140C2F1DD
:1002A000200320FA03F3194390407047202A04DB0F
:1002B000203A21FA02F00021704721FA02F3D040DF
:1002C000C2F120029140084319467047064C074D81
:1002D00006E0E06840F0010394E807009847103416
:1002E000AC42F6D3FFF766FF0016000820160008A0
:1002F000FEE7704770B5044600F004F90546601C3F
:1003000002D004480078044400F0FCF8401BA042EE
:10031000FAD370BD080000202DE9F84F00224FF0FD
:10032000010803254FF00F0E0B6808FA02F4234072
:10033000A3426ED14E68012E05D0022E03D0112E9D
:1003400001D0122E12D186684FEA420C05FA0CF742
:10035000BE43CF6807FA0CF7374387604668A64369
:100360000C79C4F30014944034434460C6685700C9
:1003700005FA07FC8C6826EA0C06BC403443C460CE
:100380004C68022C01D0122C13D1D40800EB840449
:10039000A346D4F8209054074FEAD46A0EFA0AF61E
:1003A00029EA06090E6906FA0AF646EA0906CBF8B2
:1003B000206004680E7924EA0C0406F00306BE40AF
:1003C000264306604C68E4006FD53B4C266846F433
:1003D00080462660246822F0030604F480440094DA
:1003E000364C3444A446D4F808489607360F0EFA23
:1003F00006F7BC43324FB84201D100272EE0314FFF
:10040000B84201D1012729E02F4FB84202D102277B
:1004100024E04AE02D4FB84201D103271EE02C4FC3
:10042000B84201D1042719E02A4FB84201D105276B
:1004300014E0294FB84201D106270FE0274FB842F8
:1004400001D107270AE0264FB84201D1082705E06D
:10045000244FB84201D1092700E00A27B7402743BB
:10046000CCF80878204E34684F689C43FF0300D5D1
:100470001C4334601C4E361D34684F689C43BF03D8
:1004800000D51C433460184E083634684F689C43CE
:10049000FF0200D51C433460134E0C3634684F689D
:1004A0009C43BF0200D51C433460521C102AFFF449
:1004B0003BAFBDE8F88F00004438024000300140F7
:1004C000000002400004024000080240000C02400C
:1004D000001002400014024000180240001C0240BC
:1004E0000020024000240240003C0140426931EA01
:1004F000020200D10904816170470AB1816170472D
:100500000904FBE7014880687047000008000020EC
:1005100070B58AB0040005D094F8B90225680026A9
:1005200018B107E001200AB070BD84F8B862204617
:1005300000F028F8032084F8B902E86BC00500D465
:100540002661206800F03AFF04F1100128220D46D0
:100550006846FFF778FE94E80F0000F0D9FE01210D
:10056000206800F0D5FF282229466846FFF76BFE79
:1005700094E80F0000F060FF012084F8B902002029
:10058000D1E7000070B586B0044614216846FFF735
:1005900073FE18492068884229D1174C002520682D
:1005A00040F0020020602068144E00F00200059028
:1005B0004FF40050CDE90005694630460295FFF73B
:1005C000ABFE4FF4404000900220CDE9010503202E
:1005D00003900C20049069463046FFF79DFE20688A
:1005E00040F000502060206800F00050059006B0F8
:1005F00070BD00000000044030380240000402409A
:100600000248816802781144816070470800002028
:100610000B4810B5016841F400710160016841F4B4
:1006200080610160016841F480710160032000F085
:100630006FF8002000F006F800F024F8002010BD4C
:10064000003C024070B50D4D04464FF47A71287895
:10065000B1FBF0F00A490968B1FBF0F000F0E2FAF2
:1006600048B9102C07D200222146501E00F030F865
:1006700000206C6070BD012070BD000008000020EB
:10068000140000200A4808B5016841F48041016067
:10069000006800F4804000900548001F016841F0A8
:1006A00080510160006800F08050009008BD00009B
:1006B00044380240002809DB00F01F02012191406C
:1006C0004009800000F1E020C0F8001170470000F0
:1006D000F0B40E4B1B680C46C3F30223C3F10705AD
:1006E000042D00D90425191D072901D2002300E09B
:1006F000DB1E012606FA05F1491E214099409E4065
:10070000761E16403143F0BC00F01ABF0CED00E03D
:10071000064900F0070208684FF6FF03184040EA58
:100720000220034A10430860704700000CED00E00F
:100730000000FA052DE9F0470E46050065D0DFF808
:100740001481D8F80000F7B200F00F00B04207D2D1
:1007500088F80070D8F8000000F00F00B04254D1C3
:1007600028683D4C810712D5400703D5206840F426
:10077000E05020602878000703D5206840F46040EE
:1007800020602068A96820F0F000084320602878E5
:10079000C0072DD0304968680839012812D00228D6
:1007A00013D0032811D00968890700292DDA2168A0
:1007B00021F0030101432160FFF7A4FE814641F2CD
:1007C000883A0EE009688903EFE709688901ECE7D8
:1007D000FFF798FEA0EB0901514502D90320BDE8BF
:1007E000F0872068696800F00C00B0EB810FEFD152
:1007F000D8F80010404601F00F01B14207D9077048
:10080000006800F00F00B04201D00120E7E728782F
:10081000400705D52068E96820F4E05008432060CF
:100820002878000706D52068296920F4604040EA4E
:10083000C100206000F018F82168084AC1F30311D4
:10084000515CC8400649086006480068FFF7FAFE98
:100850000020C4E7003C024008380240F0150008C0
:10086000140000200C000020154810B5006810F09E
:100870000C02144813D04110042A0FD0082A0ED1BC
:100880000F4C241F2268236802F03F025B0207D549
:100890002068C0F38810A0FB010106E0084610BDE7
:1008A0002168C1F38811A1FB00010023FFF79AFC26
:1008B0002168C1F30141491C4900B0FBF1F010BDB2
:1008C000083802400024F4002DE9F84F040076D0E7
:1008D0002078DFF838A3CE4DC00749D0DAF80010F1
:1008E0005046C1F38101012908D00068C0F381009E
:1008F00002280AD1281D0068400206D52868800316
:1009000036D560680028E2D032E06068B0F5803FFC
:1009100010D0B0F5A02F286810D020F480302860C7
:10092000286820F4802028606068A0B1FFF7EAFD05
:1009300006460CE0286840F48030F4E740F480205C
:100940002860F7E7FFF7DEFD801B642873D828686E
:100950008003F7D50CE0FFF7D5FD064605E000BFA4
:10096000FFF7D0FD801B6428F0D828688003F7D4F7
:100970002078DFF8A08280074FF000093ED5DAF832
:100980000010504611F00C0F09D00068C0F3810030
:1009900002280BD19D48001F0068400206D4286839
:1009A000800715D5E068012809D111E0E068B8B1E9
:1009B0000120C8F80000FFF7A5FD064605E020E18C
:1009C000FFF7A0FD801B0228C0D828688007F7D554
:1009D0002868216920F0F80040EAC10028600DE095
:1009E000C8F80090FFF78EFD064604E0FFF78AFD89
:1009F000801B02281FD828688007F7D420780007BA
:100A000022D5824E844861696C3671B10121016042
:100A1000FFF778FD074604E0FFF774FDC01B0228CE
:100A200009D830688007F7D50EE0C0F80090FFF7CE
:100A300069FD074605E082E0FFF764FDC01B022860
:100A40007DD830688007F7D42078400768D5DFF874
:100A5000BCB100270BF1380BDBF80000C0000BD451
:100A6000DBF8001041F08051CBF80010DBF80000FB
:100A7000012700F080500090684E3068C00510D407
:100A8000306840F480703060FFF73CFD009005E076
:100A9000FFF738FD0099401A022850D83068C00589
:100AA000F6D55A4EA068683601280FD00528306860
:100AB00010D020F001003060306820F00400306079
:100AC000A068B8B1FFF71EFD00900FE0306840F05D
:100AD0000100F4E740F004003060F7E7FFF712FD93
:100AE0000099411A41F28830814266D83068800707
:100AF000F4D50EE0FFF706FD009007E0FFF702FDDA
:100B00000099411A41F28830814256D830688007F6
:100B1000F4D42FB1DBF8001021F08051CBF8001095
:100B2000A069D0B3DAF800205146C2F38102022A4C
:100B30004AD00228484607D0C8F8600000E03CE0F0
:100B4000FFF7E0FC04463BE04746C8F86000FFF7CB
:100B5000D9FC064605E000BFFFF7D4FC801B022845
:100B60002BD828688001F7D4D4E907010843A16A8B
:100B70002B4A490802EB0141626A41EA82110843AB
:100B800094F82C1040EA01612048001F0160012008
:100B90003866FFF7B7FC044605E034E0FFF7B2FC27
:100BA000001B022809D828688001F7D52BE000BF78
:100BB000FFF7A8FC001B022802D90320BDE8F88F2C
:100BC00028688001F4D41EE00128F7D00868E269A3
:100BD00000F48001914214D1226A00F03F01914259
:100BE0000FD147F6C071626A0140914209D1A26AF1
:100BF00000F44031914204D1E16A00F07060884213
:100C000001D00120DAE70020D8E7000008380240D0
:100C10000038024000004742800E4742007000400A
:100C20000000FFFF10B5401EB0F1807F01D301200E
:100C300010BD4FF0E02460610F21601700F080FCD0
:100C40000020A06107202061002010BD7047704780
:100C500070B590F83C20012A32D0012480F83C4045
:100C6000022280F83D2003685A689D6822F07006D1
:100C70000A6832435A60134B02689A4214D0B2F1A8
:100C8000804F11D0104B9A420ED0104B9A420BD08D
:100C90000F4B9A4208D00F4B9A4205D00E4B9A4206
:100CA00002D00E4B9A4204D1496825F080031943C3
:100CB000916080F83D40002180F83C10084670BDEE
:100CC000022070BD00000140000400400008004008
:100CD000000C0040000401400040014000180040AA
:100CE00010B5040003D094F83D0010B107E00120D6
:100CF00010BD002084F83C00204600F00DF80220D2
:100D000084F83D00211D206800F02EFA012084F8AF
:100D10003D00002010BD000010B586B0044614212F
:100D20006846FFF7A9FA2068B0F1804F26D1144831
:100D30000021026842F001020260006800F0010038
:100D400005900F481038026842F001020260006806
:100D5000022200F00100059001200090CDE9012160
:100D6000CDE9031069460748FFF7D6FA002211467D
:100D70001C20FFF7ADFC1C20FFF79CFC06B010BD4B
:100D800040380240000002400168CA6842F0010297
:100D9000CA600068816801F00701062903D0016874
:100DA00041F00101016000207047704770B50446B2
:100DB000006801694FF00005C943890715D4C1686F
:100DC000C943890711D4E91E0161012020772068F9
:100DD00080698007204602D0FFF7E7FF04E000F0BB
:100DE00098F8204600F096F8257720680169C943F5
:100DF000490717D4C168C943490713D46FF00401E8
:100E00000161022020772068806910F4407F20462D
:100E100002D0FFF7CAFF04E000F07BF8204600F0A4
:100E200079F8257720680169C943090716D4C16894
:100E3000C943090712D46FF008010161042020772B
:100E40002068C0698007204602D0FFF7AEFF04E0AB
:100E500000F05FF8204600F05DF825772068016912
:100E6000C943C90617D4C168C943C90613D46FF072
:100E700010010161082020772068C06910F4407FCC
:100E8000204602D0FFF791FF04E000F042F8204630
:100E900000F040F8257720680169C943C90708D1E7
:100EA000C168C943C90704D1891E0161204600F009
:100EB00033F820680169C943090609D4C168C943E8
:100EC000090605D46FF0800101612046FFF7BEFEE0
:100ED00020680169C943490609D4C168C943490664
:100EE00005D46FF040010161204600F056F82068FB
:100EF0000169C94389060BD4C168C943890607D46F
:100F00006FF0200101612046BDE87040FFF79FBEF1
:100F100070BD704770470000074900680968884243
:100F200008D106484168491C41604FF4005104480B
:100F3000FFF7DCBA70470000180000200000002016
:100F40000018024070B5044690F83C00012812D009
:100F5000012584F83C50022084F83D00204600F032
:100F600071F901004FF0000007D084F83D5084F87B
:100F70003C00012070BD022070BD2168CA6822F0CB
:100F80004002CA602168CA6822F48042CA6084F8BC
:100F90003D5084F83C00002070BD7047FEE7000023
:100FA0002DE9F04186B014216846FFF765F927481E
:100FB0000024016841F080010160016801F08001B6
:100FC0000591016841F001010160016801F0010132
:100FD0000591016841F004010160016801F004011C
:100FE0000591016841F002010160016801F0020110
:100FF0000591016841F0400101600068144F00F064
:1010000040000590002210213846FFF776FADFF8FD
:1010100044804FF4C046002231464046FFF76DFA47
:10102000102000900125CDE901546946384603940B
:10103000FFF772F90096CDE90154694640460394E2
:10104000FFF76AF906B0BDE8F081000030380240D1
:10105000000802400018024010B588B0142168460C
:10106000FFF70AF90024104805944FF080410694D8
:10107000C0E900140121C0E9024104618461FFF765
:101080002FFE072000905020CDE901040F2004908E
:1010900069460548FFF756FF059405A902480694DE
:1010A000FFF7D6FD08B010BD18000020FEE770471E
:1010B00070477047FFF7A4BA30B593B03021684647
:1010C000FFF7DAF814210CA8FFF7D6F81A48002524
:1010D000016841F080510160006800F0805011907B
:1010E0001648016821F4404141F4804101600068E4
:1010F000022400F44040119001200090000401906F
:101100008001CDE9064004200890A820CDE909041B
:1011100007200B906846FFF7D7FB0F20CDE90C04A2
:1011200080200E904001CDE90F0502210CA8FFF7A9
:1011300001FB13B030BD0000403802400070004099
:101140000548016841F47001016003494FF00060F7
:10115000803908607047000088ED00E00148FFF723
:1011600025BE000018000020F0B50268254C264D71
:10117000264E274F274B4FF0804CA04209D06045A8
:1011800007D0A84205D0B04203D0B84201D098425F
:1011900004D122F0700E4A6842EA0E02A0421BD02F
:1011A000604519D0A84217D0B04215D0B84213D02C
:1011B000984211D0184DA8420ED0184DA8420BD01D
:1011C000174DA84208D0174DA84205D0164DA84289
:1011D00002D0164DA84203D122F44075CA682A43B2
:1011E0004D6922F080022A4302608A68C2620A685E
:1011F0008262A04201D0984201D1096901630121B4
:101200004161F0BD000001400004004000080040C2
:10121000000C004000040140004001400044014037
:101220000048014000180040001C00400020004021
:1012300010B5846842EA032224F47F440A4322431F
:10124000826010BD10B503689A6822F070044A6885
:10125000224322F007040A6822439A604A6812F087
:101260000F0F30D11211082A2DD2DFE802F02C2CFA
:101270002C2C0B2127040B69D1E902210068FFF710
:10128000D7FF20E00A68052A10D00268136A146AA2
:1012900024F00104146202689469096924F0F004DE
:1012A00044EA01119161006803620CE0012010BD65
:1012B0000A698968006800F008F804E00A6989682A
:1012C000006800F013F8002010BD10B5036A046A2E
:1012D00024F001040462846924F0F00444EA021456
:1012E00023F00A020A438461026210BD10B5036A4A
:1012F00023F0100303628369046A23F4704343EA12
:10130000023224F0A00343EA01118261016210BDA0
:1013100070B5044606990A9E049D0D98012916D0C1
:10132000E06840F04000E060204600F02BF8A16B40
:101330001EB321F48031A163012D07D1A16841F0D2
:101340000601A160A16841F02001A16070BDA16B00
:1013500021F48031A163E168094A1140E160E1684C
:1013600021F44011E160012803D1E06840F48010CD
:10137000E060204600F006F8DEE741F48031DAE76D
:10138000BFFFBDFF01220C4902E0521C8A420BD86C
:101390000369002BF9DA026942F0010202610122BD
:1013A00004E0521C8A4201D9032070470369DB071D
:1013B000F7D1002070470000400D0300816821F044
:1013C000010181600020704708B5D0F8402422F068
:1013D0002E020092D20405D4012909D1009941F4CA
:1013E000805103E021B9009921F48051C0F84014E4
:1013F000002008BD002110220261054A491C9142CB
:1014000001D9032070470369DB06F7D40020704739
:10141000400D03000022202343EA811101610549A8
:10142000521C8A4201D90320704703699B06F7D4F6
:1014300000207047400D03002DE9F0410025DDF844
:10144000188017460446C0F8005E806B40F4001018
:10145000A063A06B20F40020A063A06B20F4802088
:10146000A063E06BC00501D5032B04D0D4F80004C1
:1014700020F0040103E0D4F8000440F00401204609
:10148000C4F800141021FFF7C5FF2046FFF7B2FF94
:101490000020461E07E000BF04EB4011C1F80865BC
:1014A000C1F80C55401C8742F6D801212046FFF7B1
:1014B0008BFFC820FEF71EFFA5616661E06BC005CB
:1014C00006D54FF4007060620C48A0620C4804E03E
:1014D000802060620B48A0620B48C4F80001B8F19C
:1014E000000F03D1A06940F01000A061A069074976
:1014F0000843A0610020BDE8F08100000002000167
:101500000003E00080006000E0004000080020A32D
:1015100010B5C26822F0C042C260012902D029B1D0
:10152000012010BDC16841F0005102E0C16841F0E6
:101530008041C1603220FEF7DDFE002010BDFEE7D5
:101540000907090E002804DB00F1E02080F80014F0
:10155000704700F00F0000F1E02080F8141D704784
:1015600002E008C8121F08C1002AFAD1704770476C
:10157000002001E001C1121F002AFBD170470000CA
:10158000FFF746F8FFF798FDFFF70AFDFFF764FD48
:1015900014481349022201600C2181600121C160BD
:1015A00000210161C0E906210162C1624163FEF7C9
:1015B000AFFF0C484038FFF7E7FB0A4C0A4D0B4FD2
:1015C000403C4FF480464FF47A782068406A287097
:1015D00031463846FEF78AFF4046FEF78BFEF4E7B9
:1015E00000000440580000200000002000180240C5
:1015F00000000000000000000102030406070809C3
:1016000020160008000000201800000060150008E7
:1016100038160008180000200807000070150008A0
:1016200000000000000000000100000010000000A9
:08163000000000000024F4009A
:04000005080001AD41
:00000001FF
